{
  "_format": "hh-sol-artifact-1",
  "contractName": "DAI",
  "sourceName": "src/DAI.sol",
  "abi": [
    {
      "inputs": [],
      "stateMutability": "nonpayable",
      "type": "constructor"
    },
    {
      "anonymous": false,
      "inputs": [
        {
          "indexed": true,
          "internalType": "address",
          "name": "owner",
          "type": "address"
        },
        {
          "indexed": true,
          "internalType": "address",
          "name": "spender",
          "type": "address"
        },
        {
          "indexed": false,
          "internalType": "uint256",
          "name": "amount",
          "type": "uint256"
        }
      ],
      "name": "Approval",
      "type": "event"
    },
    {
      "anonymous": false,
      "inputs": [
        {
          "indexed": true,
          "internalType": "address",
          "name": "from",
          "type": "address"
        },
        {
          "indexed": true,
          "internalType": "address",
          "name": "to",
          "type": "address"
        },
        {
          "indexed": false,
          "internalType": "uint256",
          "name": "amount",
          "type": "uint256"
        }
      ],
      "name": "Transfer",
      "type": "event"
    },
    {
      "inputs": [],
      "name": "DOMAIN_SEPARATOR",
      "outputs": [
        {
          "internalType": "bytes32",
          "name": "",
          "type": "bytes32"
        }
      ],
      "stateMutability": "view",
      "type": "function"
    },
    {
      "inputs": [
        {
          "internalType": "address",
          "name": "",
          "type": "address"
        },
        {
          "internalType": "address",
          "name": "",
          "type": "address"
        }
      ],
      "name": "allowance",
      "outputs": [
        {
          "internalType": "uint256",
          "name": "",
          "type": "uint256"
        }
      ],
      "stateMutability": "view",
      "type": "function"
    },
    {
      "inputs": [
        {
          "internalType": "address",
          "name": "spender",
          "type": "address"
        },
        {
          "internalType": "uint256",
          "name": "amount",
          "type": "uint256"
        }
      ],
      "name": "approve",
      "outputs": [
        {
          "internalType": "bool",
          "name": "",
          "type": "bool"
        }
      ],
      "stateMutability": "nonpayable",
      "type": "function"
    },
    {
      "inputs": [
        {
          "internalType": "address",
          "name": "",
          "type": "address"
        }
      ],
      "name": "balanceOf",
      "outputs": [
        {
          "internalType": "uint256",
          "name": "",
          "type": "uint256"
        }
      ],
      "stateMutability": "view",
      "type": "function"
    },
    {
      "inputs": [],
      "name": "decimals",
      "outputs": [
        {
          "internalType": "uint8",
          "name": "",
          "type": "uint8"
        }
      ],
      "stateMutability": "view",
      "type": "function"
    },
    {
      "inputs": [
        {
          "internalType": "address",
          "name": "to",
          "type": "address"
        },
        {
          "internalType": "uint256",
          "name": "amount",
          "type": "uint256"
        }
      ],
      "name": "mint",
      "outputs": [],
      "stateMutability": "nonpayable",
      "type": "function"
    },
    {
      "inputs": [],
      "name": "name",
      "outputs": [
        {
          "internalType": "string",
          "name": "",
          "type": "string"
        }
      ],
      "stateMutability": "view",
      "type": "function"
    },
    {
      "inputs": [
        {
          "internalType": "address",
          "name": "",
          "type": "address"
        }
      ],
      "name": "nonces",
      "outputs": [
        {
          "internalType": "uint256",
          "name": "",
          "type": "uint256"
        }
      ],
      "stateMutability": "view",
      "type": "function"
    },
    {
      "inputs": [
        {
          "internalType": "address",
          "name": "owner",
          "type": "address"
        },
        {
          "internalType": "address",
          "name": "spender",
          "type": "address"
        },
        {
          "internalType": "uint256",
          "name": "value",
          "type": "uint256"
        },
        {
          "internalType": "uint256",
          "name": "deadline",
          "type": "uint256"
        },
        {
          "internalType": "uint8",
          "name": "v",
          "type": "uint8"
        },
        {
          "internalType": "bytes32",
          "name": "r",
          "type": "bytes32"
        },
        {
          "internalType": "bytes32",
          "name": "s",
          "type": "bytes32"
        }
      ],
      "name": "permit",
      "outputs": [],
      "stateMutability": "nonpayable",
      "type": "function"
    },
    {
      "inputs": [],
      "name": "symbol",
      "outputs": [
        {
          "internalType": "string",
          "name": "",
          "type": "string"
        }
      ],
      "stateMutability": "view",
      "type": "function"
    },
    {
      "inputs": [],
      "name": "totalSupply",
      "outputs": [
        {
          "internalType": "uint256",
          "name": "",
          "type": "uint256"
        }
      ],
      "stateMutability": "view",
      "type": "function"
    },
    {
      "inputs": [
        {
          "internalType": "address",
          "name": "to",
          "type": "address"
        },
        {
          "internalType": "uint256",
          "name": "amount",
          "type": "uint256"
        }
      ],
      "name": "transfer",
      "outputs": [
        {
          "internalType": "bool",
          "name": "",
          "type": "bool"
        }
      ],
      "stateMutability": "nonpayable",
      "type": "function"
    },
    {
      "inputs": [
        {
          "internalType": "address",
          "name": "from",
          "type": "address"
        },
        {
          "internalType": "address",
          "name": "to",
          "type": "address"
        },
        {
          "internalType": "uint256",
          "name": "amount",
          "type": "uint256"
        }
      ],
      "name": "transferFrom",
      "outputs": [
        {
          "internalType": "bool",
          "name": "",
          "type": "bool"
        }
      ],
      "stateMutability": "nonpayable",
      "type": "function"
    }
  ],
  "bytecode": "0x60e06040523480156200001157600080fd5b506040518060400160405280600381526020017f44414900000000000000000000000000000000000000000000000000000000008152506040518060400160405280600381526020017f4441490000000000000000000000000000000000000000000000000000000000815250601282600090805190602001906200009892919062000178565b508160019080519060200190620000b192919062000178565b508060ff1660808160ff16815250504660a08181525050620000d8620000e860201b60201c565b60c0818152505050505062000429565b60007f8b73c3c69bb8fe3d512ecc4cf759cc79239f7b179b0ffacaa9a75d522b39400f60006040516200011c919062000338565b60405180910390207fc89efdaa54c0f20c7adf612882df0950f5a951637e0307cdcb4c672f298b8bc646306040516020016200015d959493929190620003cc565b60405160208183030381529060405280519060200120905090565b828054620001869062000257565b90600052602060002090601f016020900481019282620001aa5760008555620001f6565b82601f10620001c557805160ff1916838001178555620001f6565b82800160010185558215620001f6579182015b82811115620001f5578251825591602001919060010190620001d8565b5b50905062000205919062000209565b5090565b5b80821115620002245760008160009055506001016200020a565b5090565b7f4e487b7100000000000000000000000000000000000000000000000000000000600052602260045260246000fd5b600060028204905060018216806200027057607f821691505b6020821081141562000287576200028662000228565b5b50919050565b600081905092915050565b60008190508160005260206000209050919050565b60008154620002bc8162000257565b620002c881866200028d565b94506001821660008114620002e65760018114620002f8576200032f565b60ff198316865281860193506200032f565b620003038562000298565b60005b83811015620003275781548189015260018201915060208101905062000306565b838801955050505b50505092915050565b6000620003468284620002ad565b915081905092915050565b6000819050919050565b620003668162000351565b82525050565b6000819050919050565b62000381816200036c565b82525050565b600073ffffffffffffffffffffffffffffffffffffffff82169050919050565b6000620003b48262000387565b9050919050565b620003c681620003a7565b82525050565b600060a082019050620003e360008301886200035b565b620003f260208301876200035b565b6200040160408301866200035b565b62000410606083018562000376565b6200041f6080830184620003bb565b9695505050505050565b60805160a05160c05161161b6200045960003960006106ee015260006106ba01526000610694015261161b6000f3fe608060405234801561001057600080fd5b50600436106100cf5760003560e01c806340c10f191161008c57806395d89b411161006657806395d89b4114610228578063a9059cbb14610246578063d505accf14610276578063dd62ed3e14610292576100cf565b806340c10f19146101ac57806370a08231146101c85780637ecebe00146101f8576100cf565b806306fdde03146100d4578063095ea7b3146100f257806318160ddd1461012257806323b872dd14610140578063313ce567146101705780633644e5151461018e575b600080fd5b6100dc6102c2565b6040516100e99190610e06565b60405180910390f35b61010c60048036038101906101079190610ec1565b610350565b6040516101199190610f1c565b60405180910390f35b61012a610442565b6040516101379190610f46565b60405180910390f35b61015a60048036038101906101559190610f61565b610448565b6040516101679190610f1c565b60405180910390f35b610178610692565b6040516101859190610fd0565b60405180910390f35b6101966106b6565b6040516101a39190611004565b60405180910390f35b6101c660048036038101906101c19190610ec1565b610713565b005b6101e260048036038101906101dd919061101f565b610721565b6040516101ef9190610f46565b60405180910390f35b610212600480360381019061020d919061101f565b610739565b60405161021f9190610f46565b60405180910390f35b610230610751565b60405161023d9190610e06565b60405180910390f35b610260600480360381019061025b9190610ec1565b6107df565b60405161026d9190610f1c565b60405180910390f35b610290600480360381019061028b91906110a4565b6108f3565b005b6102ac60048036038101906102a79190611146565b610bec565b6040516102b99190610f46565b60405180910390f35b600080546102cf906111b5565b80601f01602080910402602001604051908101604052809291908181526020018280546102fb906111b5565b80156103485780601f1061031d57610100808354040283529160200191610348565b820191906000526020600020905b81548152906001019060200180831161032b57829003601f168201915b505050505081565b600081600460003373ffffffffffffffffffffffffffffffffffffffff1673ffffffffffffffffffffffffffffffffffffffff16815260200190815260200160002060008573ffffffffffffffffffffffffffffffffffffffff1673ffffffffffffffffffffffffffffffffffffffff168152602001908152602001600020819055508273ffffffffffffffffffffffffffffffffffffffff163373ffffffffffffffffffffffffffffffffffffffff167f8c5be1e5ebec7d5bd14f71427d1e84f3dd0314c0f7b2291e5b200ac8c7c3b925846040516104309190610f46565b60405180910390a36001905092915050565b60025481565b600080600460008673ffffffffffffffffffffffffffffffffffffffff1673ffffffffffffffffffffffffffffffffffffffff16815260200190815260200160002060003373ffffffffffffffffffffffffffffffffffffffff1673ffffffffffffffffffffffffffffffffffffffff1681526020019081526020016000205490507fffffffffffffffffffffffffffffffffffffffffffffffffffffffffffffffff811461057e5782816104fd9190611216565b600460008773ffffffffffffffffffffffffffffffffffffffff1673ffffffffffffffffffffffffffffffffffffffff16815260200190815260200160002060003373ffffffffffffffffffffffffffffffffffffffff1673ffffffffffffffffffffffffffffffffffffffff168152602001908152602001600020819055505b82600360008773ffffffffffffffffffffffffffffffffffffffff1673ffffffffffffffffffffffffffffffffffffffff16815260200190815260200160002060008282546105cd9190611216565b9250508190555082600360008673ffffffffffffffffffffffffffffffffffffffff1673ffffffffffffffffffffffffffffffffffffffff168152602001908152602001600020600082825401925050819055508373ffffffffffffffffffffffffffffffffffffffff168573ffffffffffffffffffffffffffffffffffffffff167fddf252ad1be2c89b69c2b068fc378daa952ba7f163c4a11628f55a4df523b3ef8560405161067e9190610f46565b60405180910390a360019150509392505050565b7f000000000000000000000000000000000000000000000000000000000000000081565b60007f000000000000000000000000000000000000000000000000000000000000000046146106ec576106e7610c11565b61070e565b7f00000000000000000000000000000000000000000000000000000000000000005b905090565b61071d8282610c9d565b5050565b60036020528060005260406000206000915090505481565b60056020528060005260406000206000915090505481565b6001805461075e906111b5565b80601f016020809104026020016040519081016040528092919081815260200182805461078a906111b5565b80156107d75780601f106107ac576101008083540402835291602001916107d7565b820191906000526020600020905b8154815290600101906020018083116107ba57829003601f168201915b505050505081565b600081600360003373ffffffffffffffffffffffffffffffffffffffff1673ffffffffffffffffffffffffffffffffffffffff16815260200190815260200160002060008282546108309190611216565b9250508190555081600360008573ffffffffffffffffffffffffffffffffffffffff1673ffffffffffffffffffffffffffffffffffffffff168152602001908152602001600020600082825401925050819055508273ffffffffffffffffffffffffffffffffffffffff163373ffffffffffffffffffffffffffffffffffffffff167fddf252ad1be2c89b69c2b068fc378daa952ba7f163c4a11628f55a4df523b3ef846040516108e19190610f46565b60405180910390a36001905092915050565b42841015610936576040517f08c379a000000000000000000000000000000000000000000000000000000000815260040161092d90611296565b60405180910390fd5b600060016109426106b6565b7f6e71edae12b1b97f4d1f60370fef10105fa2faae0126114a169c64845d6126c98a8a8a600560008f73ffffffffffffffffffffffffffffffffffffffff1673ffffffffffffffffffffffffffffffffffffffff1681526020019081526020016000206000815480929190600101919050558b6040516020016109ca969594939291906112c5565b604051602081830303815290604052805190602001206040516020016109f192919061139e565b6040516020818303038152906040528051906020012085858560405160008152602001604052604051610a2794939291906113d5565b6020604051602081039080840390855afa158015610a49573d6000803e3d6000fd5b505050602060405103519050600073ffffffffffffffffffffffffffffffffffffffff168173ffffffffffffffffffffffffffffffffffffffff1614158015610abd57508773ffffffffffffffffffffffffffffffffffffffff168173ffffffffffffffffffffffffffffffffffffffff16145b610afc576040517f08c379a0000000000000000000000000000000000000000000000000000000008152600401610af390611466565b60405180910390fd5b85600460008373ffffffffffffffffffffffffffffffffffffffff1673ffffffffffffffffffffffffffffffffffffffff16815260200190815260200160002060008973ffffffffffffffffffffffffffffffffffffffff1673ffffffffffffffffffffffffffffffffffffffff16815260200190815260200160002081905550508573ffffffffffffffffffffffffffffffffffffffff168773ffffffffffffffffffffffffffffffffffffffff167f8c5be1e5ebec7d5bd14f71427d1e84f3dd0314c0f7b2291e5b200ac8c7c3b92587604051610bdb9190610f46565b60405180910390a350505050505050565b6004602052816000526040600020602052806000526040600020600091509150505481565b60007f8b73c3c69bb8fe3d512ecc4cf759cc79239f7b179b0ffacaa9a75d522b39400f6000604051610c439190611525565b60405180910390207fc89efdaa54c0f20c7adf612882df0950f5a951637e0307cdcb4c672f298b8bc64630604051602001610c8295949392919061153c565b60405160208183030381529060405280519060200120905090565b8060026000828254610caf919061158f565b9250508190555080600360008473ffffffffffffffffffffffffffffffffffffffff1673ffffffffffffffffffffffffffffffffffffffff168152602001908152602001600020600082825401925050819055508173ffffffffffffffffffffffffffffffffffffffff16600073ffffffffffffffffffffffffffffffffffffffff167fddf252ad1be2c89b69c2b068fc378daa952ba7f163c4a11628f55a4df523b3ef83604051610d619190610f46565b60405180910390a35050565b600081519050919050565b600082825260208201905092915050565b60005b83811015610da7578082015181840152602081019050610d8c565b83811115610db6576000848401525b50505050565b6000601f19601f8301169050919050565b6000610dd882610d6d565b610de28185610d78565b9350610df2818560208601610d89565b610dfb81610dbc565b840191505092915050565b60006020820190508181036000830152610e208184610dcd565b905092915050565b600080fd5b600073ffffffffffffffffffffffffffffffffffffffff82169050919050565b6000610e5882610e2d565b9050919050565b610e6881610e4d565b8114610e7357600080fd5b50565b600081359050610e8581610e5f565b92915050565b6000819050919050565b610e9e81610e8b565b8114610ea957600080fd5b50565b600081359050610ebb81610e95565b92915050565b60008060408385031215610ed857610ed7610e28565b5b6000610ee685828601610e76565b9250506020610ef785828601610eac565b9150509250929050565b60008115159050919050565b610f1681610f01565b82525050565b6000602082019050610f316000830184610f0d565b92915050565b610f4081610e8b565b82525050565b6000602082019050610f5b6000830184610f37565b92915050565b600080600060608486031215610f7a57610f79610e28565b5b6000610f8886828701610e76565b9350506020610f9986828701610e76565b9250506040610faa86828701610eac565b9150509250925092565b600060ff82169050919050565b610fca81610fb4565b82525050565b6000602082019050610fe56000830184610fc1565b92915050565b6000819050919050565b610ffe81610feb565b82525050565b60006020820190506110196000830184610ff5565b92915050565b60006020828403121561103557611034610e28565b5b600061104384828501610e76565b91505092915050565b61105581610fb4565b811461106057600080fd5b50565b6000813590506110728161104c565b92915050565b61108181610feb565b811461108c57600080fd5b50565b60008135905061109e81611078565b92915050565b600080600080600080600060e0888a0312156110c3576110c2610e28565b5b60006110d18a828b01610e76565b97505060206110e28a828b01610e76565b96505060406110f38a828b01610eac565b95505060606111048a828b01610eac565b94505060806111158a828b01611063565b93505060a06111268a828b0161108f565b92505060c06111378a828b0161108f565b91505092959891949750929550565b6000806040838503121561115d5761115c610e28565b5b600061116b85828601610e76565b925050602061117c85828601610e76565b9150509250929050565b7f4e487b7100000000000000000000000000000000000000000000000000000000600052602260045260246000fd5b600060028204905060018216806111cd57607f821691505b602082108114156111e1576111e0611186565b5b50919050565b7f4e487b7100000000000000000000000000000000000000000000000000000000600052601160045260246000fd5b600061122182610e8b565b915061122c83610e8b565b92508282101561123f5761123e6111e7565b5b828203905092915050565b7f5045524d49545f444541444c494e455f45585049524544000000000000000000600082015250565b6000611280601783610d78565b915061128b8261124a565b602082019050919050565b600060208201905081810360008301526112af81611273565b9050919050565b6112bf81610e4d565b82525050565b600060c0820190506112da6000830189610ff5565b6112e760208301886112b6565b6112f460408301876112b6565b6113016060830186610f37565b61130e6080830185610f37565b61131b60a0830184610f37565b979650505050505050565b600081905092915050565b7f1901000000000000000000000000000000000000000000000000000000000000600082015250565b6000611367600283611326565b915061137282611331565b600282019050919050565b6000819050919050565b61139861139382610feb565b61137d565b82525050565b60006113a98261135a565b91506113b58285611387565b6020820191506113c58284611387565b6020820191508190509392505050565b60006080820190506113ea6000830187610ff5565b6113f76020830186610fc1565b6114046040830185610ff5565b6114116060830184610ff5565b95945050505050565b7f494e56414c49445f5349474e4552000000000000000000000000000000000000600082015250565b6000611450600e83610d78565b915061145b8261141a565b602082019050919050565b6000602082019050818103600083015261147f81611443565b9050919050565b600081905092915050565b60008190508160005260206000209050919050565b600081546114b3816111b5565b6114bd8186611486565b945060018216600081146114d857600181146114e95761151c565b60ff1983168652818601935061151c565b6114f285611491565b60005b83811015611514578154818901526001820191506020810190506114f5565b838801955050505b50505092915050565b600061153182846114a6565b915081905092915050565b600060a0820190506115516000830188610ff5565b61155e6020830187610ff5565b61156b6040830186610ff5565b6115786060830185610f37565b61158560808301846112b6565b9695505050505050565b600061159a82610e8b565b91506115a583610e8b565b9250827fffffffffffffffffffffffffffffffffffffffffffffffffffffffffffffffff038211156115da576115d96111e7565b5b82820190509291505056fea264697066735822122080bfcd5ad4cac57ae5de0eeaaeb0aed8a0b2f1f942ea17e70585f2506ea5414664736f6c634300080a0033",
  "linkReferences": {},
  "deployedLinkReferences": {}
}