{
  "_format": "hh-sol-artifact-1",
  "contractName": "Streamer",
  "sourceName": "src/Streamer.sol",
  "abi": [
    {
      "inputs": [],
      "stateMutability": "nonpayable",
      "type": "constructor"
    },
    {
      "inputs": [
        {
          "internalType": "address",
          "name": "target",
          "type": "address"
        },
        {
          "internalType": "bool",
          "name": "success",
          "type": "bool"
        },
        {
          "internalType": "bytes",
          "name": "data",
          "type": "bytes"
        }
      ],
      "name": "ERC20CallFailed",
      "type": "error"
    },
    {
      "inputs": [],
      "name": "InsufficientBalance",
      "type": "error"
    },
    {
      "inputs": [],
      "name": "InvalidAccount",
      "type": "error"
    },
    {
      "inputs": [
        {
          "internalType": "address",
          "name": "caller",
          "type": "address"
        }
      ],
      "name": "Unauthorized",
      "type": "error"
    },
    {
      "anonymous": false,
      "inputs": [
        {
          "indexed": true,
          "internalType": "address",
          "name": "accountOwner",
          "type": "address"
        },
        {
          "indexed": true,
          "internalType": "address",
          "name": "newAddress",
          "type": "address"
        },
        {
          "indexed": false,
          "internalType": "bool",
          "name": "active",
          "type": "bool"
        }
      ],
      "name": "AuthorizedAddress",
      "type": "event"
    },
    {
      "anonymous": false,
      "inputs": [
        {
          "indexed": true,
          "internalType": "address",
          "name": "sender",
          "type": "address"
        },
        {
          "indexed": false,
          "internalType": "address",
          "name": "token",
          "type": "address"
        },
        {
          "indexed": false,
          "internalType": "uint256",
          "name": "amount",
          "type": "uint256"
        },
        {
          "indexed": false,
          "internalType": "uint256",
          "name": "balance",
          "type": "uint256"
        }
      ],
      "name": "Deposit",
      "type": "event"
    },
    {
      "anonymous": false,
      "inputs": [
        {
          "indexed": true,
          "internalType": "address",
          "name": "sender",
          "type": "address"
        },
        {
          "indexed": false,
          "internalType": "uint256",
          "name": "amount",
          "type": "uint256"
        },
        {
          "indexed": false,
          "internalType": "uint256",
          "name": "balance",
          "type": "uint256"
        }
      ],
      "name": "DepositBase",
      "type": "event"
    },
    {
      "anonymous": false,
      "inputs": [
        {
          "indexed": false,
          "internalType": "address",
          "name": "value",
          "type": "address"
        }
      ],
      "name": "StrategyUpdated",
      "type": "event"
    },
    {
      "anonymous": false,
      "inputs": [
        {
          "indexed": true,
          "internalType": "address",
          "name": "accountOwner",
          "type": "address"
        },
        {
          "indexed": false,
          "internalType": "address",
          "name": "token",
          "type": "address"
        },
        {
          "indexed": false,
          "internalType": "uint256",
          "name": "amount",
          "type": "uint256"
        },
        {
          "indexed": false,
          "internalType": "uint256",
          "name": "balance",
          "type": "uint256"
        },
        {
          "indexed": false,
          "internalType": "address",
          "name": "recipient",
          "type": "address"
        }
      ],
      "name": "Withdraw",
      "type": "event"
    },
    {
      "anonymous": false,
      "inputs": [
        {
          "indexed": true,
          "internalType": "address",
          "name": "accountOwner",
          "type": "address"
        },
        {
          "indexed": false,
          "internalType": "uint256",
          "name": "amount",
          "type": "uint256"
        },
        {
          "indexed": false,
          "internalType": "uint256",
          "name": "balance",
          "type": "uint256"
        },
        {
          "indexed": false,
          "internalType": "address",
          "name": "recipient",
          "type": "address"
        }
      ],
      "name": "WithdrawalBase",
      "type": "event"
    },
    {
      "inputs": [
        {
          "internalType": "address",
          "name": "newAddress",
          "type": "address"
        }
      ],
      "name": "authorizeAddress",
      "outputs": [
        {
          "internalType": "address",
          "name": "",
          "type": "address"
        }
      ],
      "stateMutability": "nonpayable",
      "type": "function"
    },
    {
      "inputs": [
        {
          "internalType": "address",
          "name": "token",
          "type": "address"
        },
        {
          "internalType": "uint256",
          "name": "amount",
          "type": "uint256"
        }
      ],
      "name": "deposit",
      "outputs": [
        {
          "internalType": "uint256",
          "name": "",
          "type": "uint256"
        }
      ],
      "stateMutability": "nonpayable",
      "type": "function"
    },
    {
      "inputs": [
        {
          "internalType": "address",
          "name": "token",
          "type": "address"
        },
        {
          "internalType": "uint256",
          "name": "amount",
          "type": "uint256"
        }
      ],
      "name": "depositToStrategy",
      "outputs": [
        {
          "internalType": "uint256",
          "name": "",
          "type": "uint256"
        }
      ],
      "stateMutability": "nonpayable",
      "type": "function"
    },
    {
      "inputs": [],
      "name": "getAccountBalance",
      "outputs": [
        {
          "internalType": "uint256",
          "name": "",
          "type": "uint256"
        }
      ],
      "stateMutability": "nonpayable",
      "type": "function"
    },
    {
      "inputs": [
        {
          "internalType": "address",
          "name": "accountOwner",
          "type": "address"
        }
      ],
      "name": "getAuthorizedBalance",
      "outputs": [
        {
          "internalType": "uint256",
          "name": "",
          "type": "uint256"
        }
      ],
      "stateMutability": "nonpayable",
      "type": "function"
    },
    {
      "inputs": [],
      "name": "getSupportedStrategyTokens",
      "outputs": [
        {
          "internalType": "address[]",
          "name": "",
          "type": "address[]"
        }
      ],
      "stateMutability": "view",
      "type": "function"
    },
    {
      "inputs": [
        {
          "internalType": "address",
          "name": "token",
          "type": "address"
        }
      ],
      "name": "isSupportedStrategyToken",
      "outputs": [
        {
          "internalType": "bool",
          "name": "",
          "type": "bool"
        }
      ],
      "stateMutability": "view",
      "type": "function"
    },
    {
      "inputs": [],
      "name": "owner",
      "outputs": [
        {
          "internalType": "address",
          "name": "",
          "type": "address"
        }
      ],
      "stateMutability": "view",
      "type": "function"
    },
    {
      "inputs": [
        {
          "internalType": "address",
          "name": "value",
          "type": "address"
        }
      ],
      "name": "setStrategy",
      "outputs": [],
      "stateMutability": "nonpayable",
      "type": "function"
    },
    {
      "inputs": [],
      "name": "strategy",
      "outputs": [
        {
          "internalType": "address",
          "name": "",
          "type": "address"
        }
      ],
      "stateMutability": "view",
      "type": "function"
    },
    {
      "inputs": [
        {
          "internalType": "address",
          "name": "newAddress",
          "type": "address"
        }
      ],
      "name": "unauthorizeAddress",
      "outputs": [
        {
          "internalType": "address",
          "name": "",
          "type": "address"
        }
      ],
      "stateMutability": "nonpayable",
      "type": "function"
    },
    {
      "inputs": [
        {
          "internalType": "address",
          "name": "token",
          "type": "address"
        },
        {
          "internalType": "uint256",
          "name": "amount",
          "type": "uint256"
        }
      ],
      "name": "withdraw",
      "outputs": [
        {
          "internalType": "uint256",
          "name": "",
          "type": "uint256"
        }
      ],
      "stateMutability": "nonpayable",
      "type": "function"
    },
    {
      "inputs": [
        {
          "internalType": "uint256",
          "name": "amount",
          "type": "uint256"
        }
      ],
      "name": "withdrawBase",
      "outputs": [
        {
          "internalType": "uint256",
          "name": "",
          "type": "uint256"
        }
      ],
      "stateMutability": "payable",
      "type": "function"
    },
    {
      "inputs": [
        {
          "internalType": "uint256",
          "name": "amount",
          "type": "uint256"
        },
        {
          "internalType": "address",
          "name": "accountOwner",
          "type": "address"
        }
      ],
      "name": "withdrawBaseFrom",
      "outputs": [
        {
          "internalType": "uint256",
          "name": "",
          "type": "uint256"
        }
      ],
      "stateMutability": "payable",
      "type": "function"
    },
    {
      "inputs": [
        {
          "internalType": "address",
          "name": "accountOwner",
          "type": "address"
        },
        {
          "internalType": "address",
          "name": "token",
          "type": "address"
        },
        {
          "internalType": "uint256",
          "name": "amount",
          "type": "uint256"
        }
      ],
      "name": "withdrawFrom",
      "outputs": [
        {
          "internalType": "uint256",
          "name": "",
          "type": "uint256"
        }
      ],
      "stateMutability": "nonpayable",
      "type": "function"
    },
    {
      "inputs": [
        {
          "internalType": "address",
          "name": "token",
          "type": "address"
        },
        {
          "internalType": "uint256",
          "name": "amount",
          "type": "uint256"
        }
      ],
      "name": "withdrawFromStrategy",
      "outputs": [
        {
          "internalType": "uint256",
          "name": "",
          "type": "uint256"
        }
      ],
      "stateMutability": "nonpayable",
      "type": "function"
    },
    {
      "stateMutability": "payable",
      "type": "receive"
    }
  ],
  "bytecode": "0x608060405234801561001057600080fd5b507317b1a2e012cc4c31f83b90ff11d3942857664efc600160006101000a81548173ffffffffffffffffffffffffffffffffffffffff021916908373ffffffffffffffffffffffffffffffffffffffff160217905550336000806101000a81548173ffffffffffffffffffffffffffffffffffffffff021916908373ffffffffffffffffffffffffffffffffffffffff160217905550611db7806100b56000396000f3fe6080604052600436106100f75760003560e01c80639555a9421161008a578063bbd4845c11610059578063bbd4845c14610428578063d58fe87214610465578063f3fef3a3146104a2578063f98bea15146104df576101b0565b80639555a94214610346578063a8c62e7614610383578063af76d4bd146103ae578063b53d0958146103eb576101b0565b80634a5db3b5116100c65780634a5db3b5146102765780636896fabf146102b35780638002944e146102de5780638da5cb5b1461031b576101b0565b8063117027bf146101b557806333a100ca146101e5578063375816361461020e57806347e7ef2414610239576101b0565b366101b0576000600260003373ffffffffffffffffffffffffffffffffffffffff1673ffffffffffffffffffffffffffffffffffffffff1681526020019081526020016000209050600034826001015461015191906117c3565b90508082600101819055503373ffffffffffffffffffffffffffffffffffffffff167fe00d899f07bddc349966966c829ad015f56562b7e50758cfaa5694eaef0c77cf34836040516101a4929190611828565b60405180910390a25050005b600080fd5b6101cf60048036038101906101ca91906118e0565b61050f565b6040516101dc9190611920565b60405180910390f35b3480156101f157600080fd5b5061020c6004803603810190610207919061193b565b610628565b005b34801561021a57600080fd5b506102236106ab565b6040516102309190611a26565b60405180910390f35b34801561024557600080fd5b50610260600480360381019061025b9190611a48565b61073c565b60405161026d9190611920565b60405180910390f35b34801561028257600080fd5b5061029d6004803603810190610298919061193b565b6108f5565b6040516102aa9190611a97565b60405180910390f35b3480156102bf57600080fd5b506102c8610a02565b6040516102d59190611920565b60405180910390f35b3480156102ea57600080fd5b506103056004803603810190610300919061193b565b610a51565b6040516103129190611920565b60405180910390f35b34801561032757600080fd5b50610330610b0b565b60405161033d9190611a97565b60405180910390f35b34801561035257600080fd5b5061036d60048036038101906103689190611ab2565b610b2f565b60405161037a9190611920565b60405180910390f35b34801561038f57600080fd5b50610398610d00565b6040516103a59190611a97565b60405180910390f35b3480156103ba57600080fd5b506103d560048036038101906103d09190611a48565b610d26565b6040516103e29190611920565b60405180910390f35b3480156103f757600080fd5b50610412600480360381019061040d9190611a48565b610e98565b60405161041f9190611920565b60405180910390f35b34801561043457600080fd5b5061044f600480360381019061044a919061193b565b611006565b60405161045c9190611a97565b60405180910390f35b34801561047157600080fd5b5061048c6004803603810190610487919061193b565b611113565b6040516104999190611b20565b60405180910390f35b3480156104ae57600080fd5b506104c960048036038101906104c49190611a48565b611125565b6040516104d69190611920565b60405180910390f35b6104f960048036038101906104f49190611b3b565b6112ec565b6040516105069190611920565b60405180910390f35b600061051a826113fb565b61052483836114d9565b6000600260008473ffffffffffffffffffffffffffffffffffffffff1673ffffffffffffffffffffffffffffffffffffffff168152602001908152602001600020905060003482600101546105799190611b68565b90508082600101819055503373ffffffffffffffffffffffffffffffffffffffff166108fc869081150290604051600060405180830381858888f193505050501580156105ca573d6000803e3d6000fd5b508373ffffffffffffffffffffffffffffffffffffffff167f48f15f815bf266782fd409461629511a36223a04f5cc9e5cbf306daf8e818de286833360405161061593929190611b9c565b60405180910390a2809250505092915050565b61063061155f565b80600160006101000a81548173ffffffffffffffffffffffffffffffffffffffff021916908373ffffffffffffffffffffffffffffffffffffffff1602179055507f4da9c22c924692646a21cf1f423781ae3285198dc22e8a6912835d3272b90b3c816040516106a09190611a97565b60405180910390a150565b6060600360000180548060200260200160405190810160405280929190818152602001828054801561073257602002820191906000526020600020905b8160009054906101000a900473ffffffffffffffffffffffffffffffffffffffff1673ffffffffffffffffffffffffffffffffffffffff16815260200190600101908083116106e8575b5050505050905090565b600080600260003373ffffffffffffffffffffffffffffffffffffffff1673ffffffffffffffffffffffffffffffffffffffff16815260200190815260200160002090506000838260000160008773ffffffffffffffffffffffffffffffffffffffff1673ffffffffffffffffffffffffffffffffffffffff168152602001908152602001600020546107cf91906117c3565b9050808260000160008773ffffffffffffffffffffffffffffffffffffffff1673ffffffffffffffffffffffffffffffffffffffff168152602001908152602001600020819055508473ffffffffffffffffffffffffffffffffffffffff166323b872dd3330876040518463ffffffff1660e01b815260040161085493929190611bd3565b6020604051808303816000875af1158015610873573d6000803e3d6000fd5b505050506040513d601f19601f820116820180604052508101906108979190611c36565b503373ffffffffffffffffffffffffffffffffffffffff167fdcbc1c05240f31ff3ad067ef1ee35ce4997762752e3a095284754544f4c709d78686846040516108e293929190611c63565b60405180910390a2809250505092915050565b600080600260003373ffffffffffffffffffffffffffffffffffffffff1673ffffffffffffffffffffffffffffffffffffffff168152602001908152602001600020905060018160030160008573ffffffffffffffffffffffffffffffffffffffff1673ffffffffffffffffffffffffffffffffffffffff16815260200190815260200160002060006101000a81548160ff0219169083151502179055508273ffffffffffffffffffffffffffffffffffffffff163373ffffffffffffffffffffffffffffffffffffffff167f1528b758a25ad8d9f84dbd0795e192519329e35bea47262c5e3687716cb1526460016040516109f19190611b20565b60405180910390a382915050919050565b600080600260003373ffffffffffffffffffffffffffffffffffffffff1673ffffffffffffffffffffffffffffffffffffffff1681526020019081526020016000209050806001015491505090565b600080600260008473ffffffffffffffffffffffffffffffffffffffff1673ffffffffffffffffffffffffffffffffffffffff168152602001908152602001600020905060018160030160003373ffffffffffffffffffffffffffffffffffffffff1673ffffffffffffffffffffffffffffffffffffffff16815260200190815260200160002060006101000a81548160ff021916908315150217905515610b00578060010154915050610b06565b60009150505b919050565b60008054906101000a900473ffffffffffffffffffffffffffffffffffffffff1681565b6000610b3a846113fb565b610b458285856115f1565b6000600260008673ffffffffffffffffffffffffffffffffffffffff1673ffffffffffffffffffffffffffffffffffffffff16815260200190815260200160002090506000838260000160008773ffffffffffffffffffffffffffffffffffffffff1673ffffffffffffffffffffffffffffffffffffffff16815260200190815260200160002054610bd79190611b68565b9050808260000160008773ffffffffffffffffffffffffffffffffffffffff1673ffffffffffffffffffffffffffffffffffffffff168152602001908152602001600020819055508473ffffffffffffffffffffffffffffffffffffffff166323b872dd3033876040518463ffffffff1660e01b8152600401610c5c93929190611bd3565b6020604051808303816000875af1158015610c7b573d6000803e3d6000fd5b505050506040513d601f19601f82011682018060405250810190610c9f9190611c36565b508573ffffffffffffffffffffffffffffffffffffffff167ffb80d861da582b723be2d19507ce3e03851820c464abea89156ec77e089b1ad986868433604051610cec9493929190611c9a565b60405180910390a280925050509392505050565b600160009054906101000a900473ffffffffffffffffffffffffffffffffffffffff1681565b600080600260003373ffffffffffffffffffffffffffffffffffffffff1673ffffffffffffffffffffffffffffffffffffffff16815260200190815260200160002090506000610d75856116b5565b15610e3b5760008573ffffffffffffffffffffffffffffffffffffffff16636e553f6586600160009054906101000a900473ffffffffffffffffffffffffffffffffffffffff166040518363ffffffff1660e01b8152600401610dd9929190611cdf565b6020604051808303816000875af1158015610df8573d6000803e3d6000fd5b505050506040513d601f19601f82011682018060405250810190610e1c9190611d1d565b9050808360020154610e2e91906117c3565b9150818360020181905550505b3373ffffffffffffffffffffffffffffffffffffffff167fdcbc1c05240f31ff3ad067ef1ee35ce4997762752e3a095284754544f4c709d7868684604051610e8593929190611c63565b60405180910390a2809250505092915050565b6000610ea48233611704565b6000600260003373ffffffffffffffffffffffffffffffffffffffff1673ffffffffffffffffffffffffffffffffffffffff16815260200190815260200160002090506000838260020154610ef99190611b68565b90508082600201819055508473ffffffffffffffffffffffffffffffffffffffff1663b460af948533600160009054906101000a900473ffffffffffffffffffffffffffffffffffffffff166040518463ffffffff1660e01b8152600401610f6393929190611d4a565b6020604051808303816000875af1158015610f82573d6000803e3d6000fd5b505050506040513d601f19601f82011682018060405250810190610fa69190611d1d565b503373ffffffffffffffffffffffffffffffffffffffff167ffb80d861da582b723be2d19507ce3e03851820c464abea89156ec77e089b1ad986868433604051610ff39493929190611c9a565b60405180910390a2809250505092915050565b600080600260003373ffffffffffffffffffffffffffffffffffffffff1673ffffffffffffffffffffffffffffffffffffffff168152602001908152602001600020905060008160030160008573ffffffffffffffffffffffffffffffffffffffff1673ffffffffffffffffffffffffffffffffffffffff16815260200190815260200160002060006101000a81548160ff0219169083151502179055508273ffffffffffffffffffffffffffffffffffffffff163373ffffffffffffffffffffffffffffffffffffffff167f1528b758a25ad8d9f84dbd0795e192519329e35bea47262c5e3687716cb1526460006040516111029190611b20565b60405180910390a382915050919050565b600061111e826116b5565b9050919050565b60006111328233856115f1565b6000600260003373ffffffffffffffffffffffffffffffffffffffff1673ffffffffffffffffffffffffffffffffffffffff16815260200190815260200160002090506000838260000160008773ffffffffffffffffffffffffffffffffffffffff1673ffffffffffffffffffffffffffffffffffffffff168152602001908152602001600020546111c49190611b68565b9050808260000160008773ffffffffffffffffffffffffffffffffffffffff1673ffffffffffffffffffffffffffffffffffffffff168152602001908152602001600020819055508473ffffffffffffffffffffffffffffffffffffffff166323b872dd3033876040518463ffffffff1660e01b815260040161124993929190611bd3565b6020604051808303816000875af1158015611268573d6000803e3d6000fd5b505050506040513d601f19601f8201168201806040525081019061128c9190611c36565b503373ffffffffffffffffffffffffffffffffffffffff167ffb80d861da582b723be2d19507ce3e03851820c464abea89156ec77e089b1ad9868684336040516112d99493929190611c9a565b60405180910390a2809250505092915050565b60006112f882336114d9565b6000600260003373ffffffffffffffffffffffffffffffffffffffff1673ffffffffffffffffffffffffffffffffffffffff1681526020019081526020016000209050600034826001015461134d9190611b68565b90508082600101819055503373ffffffffffffffffffffffffffffffffffffffff166108fc859081150290604051600060405180830381858888f1935050505015801561139e573d6000803e3d6000fd5b503373ffffffffffffffffffffffffffffffffffffffff167f48f15f815bf266782fd409461629511a36223a04f5cc9e5cbf306daf8e818de28583336040516113e993929190611b9c565b60405180910390a28092505050919050565b6000600260008373ffffffffffffffffffffffffffffffffffffffff1673ffffffffffffffffffffffffffffffffffffffff1681526020019081526020016000209050600115158160030160003373ffffffffffffffffffffffffffffffffffffffff1673ffffffffffffffffffffffffffffffffffffffff16815260200190815260200160002060009054906101000a900460ff161515146114d557336040517f8e4a23d60000000000000000000000000000000000000000000000000000000081526004016114cc9190611a97565b60405180910390fd5b5050565b6000600260008373ffffffffffffffffffffffffffffffffffffffff1673ffffffffffffffffffffffffffffffffffffffff1681526020019081526020016000209050806001015483111561155a576040517ff4d678b800000000000000000000000000000000000000000000000000000000815260040160405180910390fd5b505050565b60008054906101000a900473ffffffffffffffffffffffffffffffffffffffff1673ffffffffffffffffffffffffffffffffffffffff163373ffffffffffffffffffffffffffffffffffffffff16146115ef57336040517f8e4a23d60000000000000000000000000000000000000000000000000000000081526004016115e69190611a97565b60405180910390fd5b565b6000600260008473ffffffffffffffffffffffffffffffffffffffff1673ffffffffffffffffffffffffffffffffffffffff16815260200190815260200160002090508060000160008373ffffffffffffffffffffffffffffffffffffffff1673ffffffffffffffffffffffffffffffffffffffff168152602001908152602001600020548411156116af576040517ff4d678b800000000000000000000000000000000000000000000000000000000815260040160405180910390fd5b50505050565b600080600360010160008473ffffffffffffffffffffffffffffffffffffffff1673ffffffffffffffffffffffffffffffffffffffff1681526020019081526020016000205414159050919050565b6000600260008373ffffffffffffffffffffffffffffffffffffffff1673ffffffffffffffffffffffffffffffffffffffff16815260200190815260200160002090508060020154831115611785576040517ff4d678b800000000000000000000000000000000000000000000000000000000815260040160405180910390fd5b505050565b6000819050919050565b7f4e487b7100000000000000000000000000000000000000000000000000000000600052601160045260246000fd5b60006117ce8261178a565b91506117d98361178a565b9250827fffffffffffffffffffffffffffffffffffffffffffffffffffffffffffffffff0382111561180e5761180d611794565b5b828201905092915050565b6118228161178a565b82525050565b600060408201905061183d6000830185611819565b61184a6020830184611819565b9392505050565b600080fd5b61185f8161178a565b811461186a57600080fd5b50565b60008135905061187c81611856565b92915050565b600073ffffffffffffffffffffffffffffffffffffffff82169050919050565b60006118ad82611882565b9050919050565b6118bd816118a2565b81146118c857600080fd5b50565b6000813590506118da816118b4565b92915050565b600080604083850312156118f7576118f6611851565b5b60006119058582860161186d565b9250506020611916858286016118cb565b9150509250929050565b60006020820190506119356000830184611819565b92915050565b60006020828403121561195157611950611851565b5b600061195f848285016118cb565b91505092915050565b600081519050919050565b600082825260208201905092915050565b6000819050602082019050919050565b61199d816118a2565b82525050565b60006119af8383611994565b60208301905092915050565b6000602082019050919050565b60006119d382611968565b6119dd8185611973565b93506119e883611984565b8060005b83811015611a19578151611a0088826119a3565b9750611a0b836119bb565b9250506001810190506119ec565b5085935050505092915050565b60006020820190508181036000830152611a4081846119c8565b905092915050565b60008060408385031215611a5f57611a5e611851565b5b6000611a6d858286016118cb565b9250506020611a7e8582860161186d565b9150509250929050565b611a91816118a2565b82525050565b6000602082019050611aac6000830184611a88565b92915050565b600080600060608486031215611acb57611aca611851565b5b6000611ad9868287016118cb565b9350506020611aea868287016118cb565b9250506040611afb8682870161186d565b9150509250925092565b60008115159050919050565b611b1a81611b05565b82525050565b6000602082019050611b356000830184611b11565b92915050565b600060208284031215611b5157611b50611851565b5b6000611b5f8482850161186d565b91505092915050565b6000611b738261178a565b9150611b7e8361178a565b925082821015611b9157611b90611794565b5b828203905092915050565b6000606082019050611bb16000830186611819565b611bbe6020830185611819565b611bcb6040830184611a88565b949350505050565b6000606082019050611be86000830186611a88565b611bf56020830185611a88565b611c026040830184611819565b949350505050565b611c1381611b05565b8114611c1e57600080fd5b50565b600081519050611c3081611c0a565b92915050565b600060208284031215611c4c57611c4b611851565b5b6000611c5a84828501611c21565b91505092915050565b6000606082019050611c786000830186611a88565b611c856020830185611819565b611c926040830184611819565b949350505050565b6000608082019050611caf6000830187611a88565b611cbc6020830186611819565b611cc96040830185611819565b611cd66060830184611a88565b95945050505050565b6000604082019050611cf46000830185611819565b611d016020830184611a88565b9392505050565b600081519050611d1781611856565b92915050565b600060208284031215611d3357611d32611851565b5b6000611d4184828501611d08565b91505092915050565b6000606082019050611d5f6000830186611819565b611d6c6020830185611a88565b611d796040830184611a88565b94935050505056fea2646970667358221220bdbf189452df0df47624dcca77b43ba12e6b89e1df9eacf95a4adbe05ce8bc3164736f6c634300080a0033",
  "linkReferences": {},
  "deployedLinkReferences": {}
}