{
  "_format": "hh-sol-artifact-1",
  "contractName": "Streamer",
  "sourceName": "src/Streamer.sol",
  "abi": [
    {
      "inputs": [
        {
          "internalType": "address",
          "name": "_strategy",
          "type": "address"
        },
        {
          "internalType": "address",
          "name": "_owner",
          "type": "address"
        },
        {
          "internalType": "address",
          "name": "_underlying",
          "type": "address"
        }
      ],
      "stateMutability": "nonpayable",
      "type": "constructor"
    },
    {
      "inputs": [
        {
          "internalType": "address",
          "name": "target",
          "type": "address"
        },
        {
          "internalType": "bool",
          "name": "success",
          "type": "bool"
        },
        {
          "internalType": "bytes",
          "name": "data",
          "type": "bytes"
        }
      ],
      "name": "ERC20CallFailed",
      "type": "error"
    },
    {
      "inputs": [],
      "name": "InsufficientBalance",
      "type": "error"
    },
    {
      "inputs": [],
      "name": "InvalidAccount",
      "type": "error"
    },
    {
      "inputs": [
        {
          "internalType": "address",
          "name": "caller",
          "type": "address"
        }
      ],
      "name": "Unauthorized",
      "type": "error"
    },
    {
      "anonymous": false,
      "inputs": [
        {
          "indexed": true,
          "internalType": "address",
          "name": "accountOwner",
          "type": "address"
        },
        {
          "indexed": true,
          "internalType": "address",
          "name": "newAddress",
          "type": "address"
        },
        {
          "indexed": false,
          "internalType": "bool",
          "name": "active",
          "type": "bool"
        }
      ],
      "name": "AuthorizedAddress",
      "type": "event"
    },
    {
      "anonymous": false,
      "inputs": [
        {
          "indexed": true,
          "internalType": "address",
          "name": "sender",
          "type": "address"
        },
        {
          "indexed": false,
          "internalType": "address",
          "name": "token",
          "type": "address"
        },
        {
          "indexed": false,
          "internalType": "uint256",
          "name": "amount",
          "type": "uint256"
        },
        {
          "indexed": false,
          "internalType": "uint256",
          "name": "balance",
          "type": "uint256"
        }
      ],
      "name": "Deposit",
      "type": "event"
    },
    {
      "anonymous": false,
      "inputs": [
        {
          "indexed": true,
          "internalType": "address",
          "name": "sender",
          "type": "address"
        },
        {
          "indexed": false,
          "internalType": "uint256",
          "name": "amount",
          "type": "uint256"
        },
        {
          "indexed": false,
          "internalType": "uint256",
          "name": "balance",
          "type": "uint256"
        }
      ],
      "name": "DepositBase",
      "type": "event"
    },
    {
      "anonymous": false,
      "inputs": [
        {
          "indexed": false,
          "internalType": "address",
          "name": "strategy",
          "type": "address"
        },
        {
          "indexed": false,
          "internalType": "address",
          "name": "underlying",
          "type": "address"
        }
      ],
      "name": "StrategyUpdated",
      "type": "event"
    },
    {
      "anonymous": false,
      "inputs": [
        {
          "indexed": true,
          "internalType": "address",
          "name": "accountOwner",
          "type": "address"
        },
        {
          "indexed": false,
          "internalType": "address",
          "name": "token",
          "type": "address"
        },
        {
          "indexed": false,
          "internalType": "uint256",
          "name": "amount",
          "type": "uint256"
        },
        {
          "indexed": false,
          "internalType": "uint256",
          "name": "balance",
          "type": "uint256"
        },
        {
          "indexed": false,
          "internalType": "address",
          "name": "recipient",
          "type": "address"
        }
      ],
      "name": "Withdraw",
      "type": "event"
    },
    {
      "anonymous": false,
      "inputs": [
        {
          "indexed": true,
          "internalType": "address",
          "name": "accountOwner",
          "type": "address"
        },
        {
          "indexed": false,
          "internalType": "uint256",
          "name": "amount",
          "type": "uint256"
        },
        {
          "indexed": false,
          "internalType": "uint256",
          "name": "balance",
          "type": "uint256"
        },
        {
          "indexed": false,
          "internalType": "address",
          "name": "recipient",
          "type": "address"
        }
      ],
      "name": "WithdrawalBase",
      "type": "event"
    },
    {
      "inputs": [
        {
          "internalType": "address",
          "name": "newAddress",
          "type": "address"
        }
      ],
      "name": "authorizeAddress",
      "outputs": [
        {
          "internalType": "address",
          "name": "",
          "type": "address"
        }
      ],
      "stateMutability": "nonpayable",
      "type": "function"
    },
    {
      "inputs": [
        {
          "internalType": "address",
          "name": "token",
          "type": "address"
        },
        {
          "internalType": "uint256",
          "name": "amount",
          "type": "uint256"
        }
      ],
      "name": "deposit",
      "outputs": [
        {
          "internalType": "uint256",
          "name": "",
          "type": "uint256"
        }
      ],
      "stateMutability": "nonpayable",
      "type": "function"
    },
    {
      "inputs": [
        {
          "internalType": "address",
          "name": "account",
          "type": "address"
        }
      ],
      "name": "getAccountBalance",
      "outputs": [
        {
          "internalType": "uint256",
          "name": "",
          "type": "uint256"
        }
      ],
      "stateMutability": "view",
      "type": "function"
    },
    {
      "inputs": [
        {
          "internalType": "address",
          "name": "accountOwner",
          "type": "address"
        }
      ],
      "name": "getAuthorizedBalance",
      "outputs": [
        {
          "internalType": "uint256",
          "name": "",
          "type": "uint256"
        }
      ],
      "stateMutability": "nonpayable",
      "type": "function"
    },
    {
      "inputs": [
        {
          "internalType": "address",
          "name": "token",
          "type": "address"
        },
        {
          "internalType": "address",
          "name": "account",
          "type": "address"
        }
      ],
      "name": "getERC20Balance",
      "outputs": [
        {
          "internalType": "uint256",
          "name": "",
          "type": "uint256"
        }
      ],
      "stateMutability": "view",
      "type": "function"
    },
    {
      "inputs": [],
      "name": "getSupportedStrategyToken",
      "outputs": [
        {
          "internalType": "address",
          "name": "",
          "type": "address"
        }
      ],
      "stateMutability": "view",
      "type": "function"
    },
    {
      "inputs": [
        {
          "internalType": "address",
          "name": "token",
          "type": "address"
        },
        {
          "internalType": "address",
          "name": "account",
          "type": "address"
        }
      ],
      "name": "getYeildStrategyBalance",
      "outputs": [
        {
          "internalType": "uint256",
          "name": "",
          "type": "uint256"
        }
      ],
      "stateMutability": "view",
      "type": "function"
    },
    {
      "inputs": [],
      "name": "owner",
      "outputs": [
        {
          "internalType": "address",
          "name": "",
          "type": "address"
        }
      ],
      "stateMutability": "view",
      "type": "function"
    },
    {
      "inputs": [
        {
          "internalType": "address",
          "name": "_strategy",
          "type": "address"
        },
        {
          "internalType": "address",
          "name": "_underlying",
          "type": "address"
        }
      ],
      "name": "setStrategy",
      "outputs": [],
      "stateMutability": "nonpayable",
      "type": "function"
    },
    {
      "inputs": [],
      "name": "strategy",
      "outputs": [
        {
          "internalType": "address",
          "name": "",
          "type": "address"
        }
      ],
      "stateMutability": "view",
      "type": "function"
    },
    {
      "inputs": [
        {
          "internalType": "address",
          "name": "newAddress",
          "type": "address"
        }
      ],
      "name": "unauthorizeAddress",
      "outputs": [
        {
          "internalType": "address",
          "name": "",
          "type": "address"
        }
      ],
      "stateMutability": "nonpayable",
      "type": "function"
    },
    {
      "inputs": [
        {
          "internalType": "address",
          "name": "token",
          "type": "address"
        },
        {
          "internalType": "uint256",
          "name": "amount",
          "type": "uint256"
        }
      ],
      "name": "withdraw",
      "outputs": [
        {
          "internalType": "uint256",
          "name": "",
          "type": "uint256"
        }
      ],
      "stateMutability": "nonpayable",
      "type": "function"
    },
    {
      "inputs": [
        {
          "internalType": "uint256",
          "name": "amount",
          "type": "uint256"
        }
      ],
      "name": "withdrawBase",
      "outputs": [
        {
          "internalType": "uint256",
          "name": "",
          "type": "uint256"
        }
      ],
      "stateMutability": "payable",
      "type": "function"
    },
    {
      "inputs": [
        {
          "internalType": "uint256",
          "name": "amount",
          "type": "uint256"
        },
        {
          "internalType": "address",
          "name": "accountOwner",
          "type": "address"
        }
      ],
      "name": "withdrawBaseFrom",
      "outputs": [
        {
          "internalType": "uint256",
          "name": "",
          "type": "uint256"
        }
      ],
      "stateMutability": "payable",
      "type": "function"
    },
    {
      "inputs": [
        {
          "internalType": "address",
          "name": "accountOwner",
          "type": "address"
        },
        {
          "internalType": "address",
          "name": "token",
          "type": "address"
        },
        {
          "internalType": "uint256",
          "name": "amount",
          "type": "uint256"
        }
      ],
      "name": "withdrawFrom",
      "outputs": [
        {
          "internalType": "uint256",
          "name": "",
          "type": "uint256"
        }
      ],
      "stateMutability": "nonpayable",
      "type": "function"
    },
    {
      "stateMutability": "payable",
      "type": "receive"
    }
  ],
  "bytecode": "0x60806040523480156200001157600080fd5b50604051620022f3380380620022f383398181016040528101906200003791906200016c565b82600160006101000a81548173ffffffffffffffffffffffffffffffffffffffff021916908373ffffffffffffffffffffffffffffffffffffffff160217905550816000806101000a81548173ffffffffffffffffffffffffffffffffffffffff021916908373ffffffffffffffffffffffffffffffffffffffff16021790555080600360006101000a81548173ffffffffffffffffffffffffffffffffffffffff021916908373ffffffffffffffffffffffffffffffffffffffff160217905550505050620001c8565b600080fd5b600073ffffffffffffffffffffffffffffffffffffffff82169050919050565b6000620001348262000107565b9050919050565b620001468162000127565b81146200015257600080fd5b50565b60008151905062000166816200013b565b92915050565b60008060006060848603121562000188576200018762000102565b5b6000620001988682870162000155565b9350506020620001ab8682870162000155565b9250506040620001be8682870162000155565b9150509250925092565b61211b80620001d86000396000f3fe6080604052600436106100ec5760003560e01c80638da5cb5b1161008a578063bbd4845c11610059578063bbd4845c146103f2578063c3a8962c1461042f578063f3fef3a31461046c578063f98bea15146104a9576101a5565b80638da5cb5b1461032257806393423e9c1461034d5780639555a9421461038a578063a8c62e76146103c7576101a5565b80635a831efc116100c65780635a831efc1461025457806363b1ade61461027f57806372cb5d97146102bc5780638002944e146102e5576101a5565b8063117027bf146101aa57806347e7ef24146101da5780634a5db3b514610217576101a5565b366101a5576000600260003373ffffffffffffffffffffffffffffffffffffffff1673ffffffffffffffffffffffffffffffffffffffff168152602001908152602001600020905060003482600101546101469190611b75565b90508082600101819055503373ffffffffffffffffffffffffffffffffffffffff167fe00d899f07bddc349966966c829ad015f56562b7e50758cfaa5694eaef0c77cf3483604051610199929190611bda565b60405180910390a25050005b600080fd5b6101c460048036038101906101bf9190611c92565b6104d9565b6040516101d19190611cd2565b60405180910390f35b3480156101e657600080fd5b5061020160048036038101906101fc9190611ced565b6105f2565b60405161020e9190611cd2565b60405180910390f35b34801561022357600080fd5b5061023e60048036038101906102399190611d2d565b610817565b60405161024b9190611d69565b60405180910390f35b34801561026057600080fd5b50610269610924565b6040516102769190611d69565b60405180910390f35b34801561028b57600080fd5b506102a660048036038101906102a19190611d84565b61094e565b6040516102b39190611cd2565b60405180910390f35b3480156102c857600080fd5b506102e360048036038101906102de9190611d84565b6109a0565b005b3480156102f157600080fd5b5061030c60048036038101906103079190611d2d565b610a67565b6040516103199190611cd2565b60405180910390f35b34801561032e57600080fd5b50610337610b21565b6040516103449190611d69565b60405180910390f35b34801561035957600080fd5b50610374600480360381019061036f9190611d2d565b610b45565b6040516103819190611cd2565b60405180910390f35b34801561039657600080fd5b506103b160048036038101906103ac9190611dc4565b610b96565b6040516103be9190611cd2565b60405180910390f35b3480156103d357600080fd5b506103dc610ddb565b6040516103e99190611d69565b60405180910390f35b3480156103fe57600080fd5b5061041960048036038101906104149190611d2d565b610e01565b6040516104269190611d69565b60405180910390f35b34801561043b57600080fd5b5061045660048036038101906104519190611d84565b610f0e565b6040516104639190611cd2565b60405180910390f35b34801561047857600080fd5b50610493600480360381019061048e9190611ced565b610f9d565b6040516104a09190611cd2565b60405180910390f35b6104c360048036038101906104be9190611e17565b6111d9565b6040516104d09190611cd2565b60405180910390f35b60006104e4826112e8565b6104ee83836113c6565b6000600260008473ffffffffffffffffffffffffffffffffffffffff1673ffffffffffffffffffffffffffffffffffffffff168152602001908152602001600020905060003482600101546105439190611e44565b90508082600101819055503373ffffffffffffffffffffffffffffffffffffffff166108fc869081150290604051600060405180830381858888f19350505050158015610594573d6000803e3d6000fd5b508373ffffffffffffffffffffffffffffffffffffffff167f48f15f815bf266782fd409461629511a36223a04f5cc9e5cbf306daf8e818de28683336040516105df93929190611e78565b60405180910390a2809250505092915050565b60008273ffffffffffffffffffffffffffffffffffffffff16600360009054906101000a900473ffffffffffffffffffffffffffffffffffffffff1673ffffffffffffffffffffffffffffffffffffffff161415610659576106538261144c565b50610810565b6000600260003373ffffffffffffffffffffffffffffffffffffffff1673ffffffffffffffffffffffffffffffffffffffff16815260200190815260200160002090506000838260000160008773ffffffffffffffffffffffffffffffffffffffff1673ffffffffffffffffffffffffffffffffffffffff168152602001908152602001600020546106eb9190611b75565b9050808260000160008773ffffffffffffffffffffffffffffffffffffffff1673ffffffffffffffffffffffffffffffffffffffff168152602001908152602001600020819055508473ffffffffffffffffffffffffffffffffffffffff166323b872dd3330876040518463ffffffff1660e01b815260040161077093929190611eaf565b6020604051808303816000875af115801561078f573d6000803e3d6000fd5b505050506040513d601f19601f820116820180604052508101906107b39190611f1e565b503373ffffffffffffffffffffffffffffffffffffffff167fdcbc1c05240f31ff3ad067ef1ee35ce4997762752e3a095284754544f4c709d78686846040516107fe93929190611f4b565b60405180910390a28092505050610811565b5b92915050565b600080600260003373ffffffffffffffffffffffffffffffffffffffff1673ffffffffffffffffffffffffffffffffffffffff168152602001908152602001600020905060018160030160008573ffffffffffffffffffffffffffffffffffffffff1673ffffffffffffffffffffffffffffffffffffffff16815260200190815260200160002060006101000a81548160ff0219169083151502179055508273ffffffffffffffffffffffffffffffffffffffff163373ffffffffffffffffffffffffffffffffffffffff167f1528b758a25ad8d9f84dbd0795e192519329e35bea47262c5e3687716cb1526460016040516109139190611f91565b60405180910390a382915050919050565b6000600360009054906101000a900473ffffffffffffffffffffffffffffffffffffffff16905090565b600080600260008473ffffffffffffffffffffffffffffffffffffffff1673ffffffffffffffffffffffffffffffffffffffff1681526020019081526020016000209050806002015491505092915050565b6109a8611736565b81600160006101000a81548173ffffffffffffffffffffffffffffffffffffffff021916908373ffffffffffffffffffffffffffffffffffffffff16021790555080600360006101000a81548173ffffffffffffffffffffffffffffffffffffffff021916908373ffffffffffffffffffffffffffffffffffffffff1602179055507fe4cec16b1a7e6b7979e923da619a8b1e5fd0f0fb6e5c1cf647f350430ee61ca98282604051610a5b929190611fac565b60405180910390a15050565b600080600260008473ffffffffffffffffffffffffffffffffffffffff1673ffffffffffffffffffffffffffffffffffffffff168152602001908152602001600020905060018160030160003373ffffffffffffffffffffffffffffffffffffffff1673ffffffffffffffffffffffffffffffffffffffff16815260200190815260200160002060006101000a81548160ff021916908315150217905515610b16578060010154915050610b1c565b60009150505b919050565b60008054906101000a900473ffffffffffffffffffffffffffffffffffffffff1681565b600080600260008473ffffffffffffffffffffffffffffffffffffffff1673ffffffffffffffffffffffffffffffffffffffff16815260200190815260200160002090508060010154915050919050565b6000610ba1846112e8565b6000600260008673ffffffffffffffffffffffffffffffffffffffff1673ffffffffffffffffffffffffffffffffffffffff16815260200190815260200160002090508373ffffffffffffffffffffffffffffffffffffffff16600360009054906101000a900473ffffffffffffffffffffffffffffffffffffffff1673ffffffffffffffffffffffffffffffffffffffff161415610c5357610c4483866117c8565b610c4d8361184e565b50610dd2565b610c5e838686611a78565b6000838260000160008773ffffffffffffffffffffffffffffffffffffffff1673ffffffffffffffffffffffffffffffffffffffff16815260200190815260200160002054610cad9190611e44565b9050808260000160008773ffffffffffffffffffffffffffffffffffffffff1673ffffffffffffffffffffffffffffffffffffffff168152602001908152602001600020819055508473ffffffffffffffffffffffffffffffffffffffff1663a9059cbb33866040518363ffffffff1660e01b8152600401610d30929190611fd5565b6020604051808303816000875af1158015610d4f573d6000803e3d6000fd5b505050506040513d601f19601f82011682018060405250810190610d739190611f1e565b508573ffffffffffffffffffffffffffffffffffffffff167ffb80d861da582b723be2d19507ce3e03851820c464abea89156ec77e089b1ad986868433604051610dc09493929190611ffe565b60405180910390a28092505050610dd4565b505b9392505050565b600160009054906101000a900473ffffffffffffffffffffffffffffffffffffffff1681565b600080600260003373ffffffffffffffffffffffffffffffffffffffff1673ffffffffffffffffffffffffffffffffffffffff168152602001908152602001600020905060008160030160008573ffffffffffffffffffffffffffffffffffffffff1673ffffffffffffffffffffffffffffffffffffffff16815260200190815260200160002060006101000a81548160ff0219169083151502179055508273ffffffffffffffffffffffffffffffffffffffff163373ffffffffffffffffffffffffffffffffffffffff167f1528b758a25ad8d9f84dbd0795e192519329e35bea47262c5e3687716cb152646000604051610efd9190611f91565b60405180910390a382915050919050565b600080600260008473ffffffffffffffffffffffffffffffffffffffff1673ffffffffffffffffffffffffffffffffffffffff16815260200190815260200160002090508060000160008573ffffffffffffffffffffffffffffffffffffffff1673ffffffffffffffffffffffffffffffffffffffff1681526020019081526020016000205491505092915050565b60008273ffffffffffffffffffffffffffffffffffffffff16600360009054906101000a900473ffffffffffffffffffffffffffffffffffffffff1673ffffffffffffffffffffffffffffffffffffffff16141561100e57610fff82336117c8565b6110088261184e565b506111d2565b611019823385611a78565b6000600260003373ffffffffffffffffffffffffffffffffffffffff1673ffffffffffffffffffffffffffffffffffffffff16815260200190815260200160002090506000838260000160008773ffffffffffffffffffffffffffffffffffffffff1673ffffffffffffffffffffffffffffffffffffffff168152602001908152602001600020546110ab9190611e44565b9050808260000160008773ffffffffffffffffffffffffffffffffffffffff1673ffffffffffffffffffffffffffffffffffffffff168152602001908152602001600020819055508473ffffffffffffffffffffffffffffffffffffffff166323b872dd3033876040518463ffffffff1660e01b815260040161113093929190611eaf565b6020604051808303816000875af115801561114f573d6000803e3d6000fd5b505050506040513d601f19601f820116820180604052508101906111739190611f1e565b503373ffffffffffffffffffffffffffffffffffffffff167ffb80d861da582b723be2d19507ce3e03851820c464abea89156ec77e089b1ad9868684336040516111c09493929190611ffe565b60405180910390a280925050506111d3565b5b92915050565b60006111e582336113c6565b6000600260003373ffffffffffffffffffffffffffffffffffffffff1673ffffffffffffffffffffffffffffffffffffffff1681526020019081526020016000209050600034826001015461123a9190611e44565b90508082600101819055503373ffffffffffffffffffffffffffffffffffffffff166108fc859081150290604051600060405180830381858888f1935050505015801561128b573d6000803e3d6000fd5b503373ffffffffffffffffffffffffffffffffffffffff167f48f15f815bf266782fd409461629511a36223a04f5cc9e5cbf306daf8e818de28583336040516112d693929190611e78565b60405180910390a28092505050919050565b6000600260008373ffffffffffffffffffffffffffffffffffffffff1673ffffffffffffffffffffffffffffffffffffffff1681526020019081526020016000209050600115158160030160003373ffffffffffffffffffffffffffffffffffffffff1673ffffffffffffffffffffffffffffffffffffffff16815260200190815260200160002060009054906101000a900460ff161515146113c257336040517f8e4a23d60000000000000000000000000000000000000000000000000000000081526004016113b99190611d69565b60405180910390fd5b5050565b6000600260008373ffffffffffffffffffffffffffffffffffffffff1673ffffffffffffffffffffffffffffffffffffffff16815260200190815260200160002090508060010154831115611447576040517ff4d678b800000000000000000000000000000000000000000000000000000000815260040160405180910390fd5b505050565b600080600260003373ffffffffffffffffffffffffffffffffffffffff1673ffffffffffffffffffffffffffffffffffffffff16815260200190815260200160002090506000600360009054906101000a900473ffffffffffffffffffffffffffffffffffffffff1673ffffffffffffffffffffffffffffffffffffffff166323b872dd3330876040518463ffffffff1660e01b81526004016114f193929190611eaf565b6020604051808303816000875af1158015611510573d6000803e3d6000fd5b505050506040513d601f19601f820116820180604052508101906115349190611f1e565b50600360009054906101000a900473ffffffffffffffffffffffffffffffffffffffff1673ffffffffffffffffffffffffffffffffffffffff1663095ea7b3600160009054906101000a900473ffffffffffffffffffffffffffffffffffffffff16866040518363ffffffff1660e01b81526004016115b4929190611fd5565b6020604051808303816000875af11580156115d3573d6000803e3d6000fd5b505050506040513d601f19601f820116820180604052508101906115f79190611f1e565b506000600160009054906101000a900473ffffffffffffffffffffffffffffffffffffffff1673ffffffffffffffffffffffffffffffffffffffff16636e553f6586306040518363ffffffff1660e01b8152600401611657929190612043565b6020604051808303816000875af1158015611676573d6000803e3d6000fd5b505050506040513d601f19601f8201168201806040525081019061169a9190612081565b90508083600201546116ac9190611b75565b91508183600201819055503373ffffffffffffffffffffffffffffffffffffffff167fdcbc1c05240f31ff3ad067ef1ee35ce4997762752e3a095284754544f4c709d7600360009054906101000a900473ffffffffffffffffffffffffffffffffffffffff16878560405161172393929190611f4b565b60405180910390a2819350505050919050565b60008054906101000a900473ffffffffffffffffffffffffffffffffffffffff1673ffffffffffffffffffffffffffffffffffffffff163373ffffffffffffffffffffffffffffffffffffffff16146117c657336040517f8e4a23d60000000000000000000000000000000000000000000000000000000081526004016117bd9190611d69565b60405180910390fd5b565b6000600260008373ffffffffffffffffffffffffffffffffffffffff1673ffffffffffffffffffffffffffffffffffffffff16815260200190815260200160002090508060020154831115611849576040517ff4d678b800000000000000000000000000000000000000000000000000000000815260040160405180910390fd5b505050565b600080600260003373ffffffffffffffffffffffffffffffffffffffff1673ffffffffffffffffffffffffffffffffffffffff1681526020019081526020016000209050600080600160009054906101000a900473ffffffffffffffffffffffffffffffffffffffff1673ffffffffffffffffffffffffffffffffffffffff1663b460af948630336040518463ffffffff1660e01b81526004016118f4939291906120ae565b6020604051808303816000875af1158015611913573d6000803e3d6000fd5b505050506040513d601f19601f820116820180604052508101906119379190612081565b9050600360009054906101000a900473ffffffffffffffffffffffffffffffffffffffff1673ffffffffffffffffffffffffffffffffffffffff166323b872dd3033886040518463ffffffff1660e01b815260040161199893929190611eaf565b6020604051808303816000875af11580156119b7573d6000803e3d6000fd5b505050506040513d601f19601f820116820180604052508101906119db9190611f1e565b508083600201546119ec9190611e44565b91508183600201819055503373ffffffffffffffffffffffffffffffffffffffff167ffb80d861da582b723be2d19507ce3e03851820c464abea89156ec77e089b1ad9600360009054906101000a900473ffffffffffffffffffffffffffffffffffffffff16878533604051611a659493929190611ffe565b60405180910390a2819350505050919050565b6000600260008473ffffffffffffffffffffffffffffffffffffffff1673ffffffffffffffffffffffffffffffffffffffff16815260200190815260200160002090508060000160008373ffffffffffffffffffffffffffffffffffffffff1673ffffffffffffffffffffffffffffffffffffffff16815260200190815260200160002054841115611b36576040517ff4d678b800000000000000000000000000000000000000000000000000000000815260040160405180910390fd5b50505050565b6000819050919050565b7f4e487b7100000000000000000000000000000000000000000000000000000000600052601160045260246000fd5b6000611b8082611b3c565b9150611b8b83611b3c565b9250827fffffffffffffffffffffffffffffffffffffffffffffffffffffffffffffffff03821115611bc057611bbf611b46565b5b828201905092915050565b611bd481611b3c565b82525050565b6000604082019050611bef6000830185611bcb565b611bfc6020830184611bcb565b9392505050565b600080fd5b611c1181611b3c565b8114611c1c57600080fd5b50565b600081359050611c2e81611c08565b92915050565b600073ffffffffffffffffffffffffffffffffffffffff82169050919050565b6000611c5f82611c34565b9050919050565b611c6f81611c54565b8114611c7a57600080fd5b50565b600081359050611c8c81611c66565b92915050565b60008060408385031215611ca957611ca8611c03565b5b6000611cb785828601611c1f565b9250506020611cc885828601611c7d565b9150509250929050565b6000602082019050611ce76000830184611bcb565b92915050565b60008060408385031215611d0457611d03611c03565b5b6000611d1285828601611c7d565b9250506020611d2385828601611c1f565b9150509250929050565b600060208284031215611d4357611d42611c03565b5b6000611d5184828501611c7d565b91505092915050565b611d6381611c54565b82525050565b6000602082019050611d7e6000830184611d5a565b92915050565b60008060408385031215611d9b57611d9a611c03565b5b6000611da985828601611c7d565b9250506020611dba85828601611c7d565b9150509250929050565b600080600060608486031215611ddd57611ddc611c03565b5b6000611deb86828701611c7d565b9350506020611dfc86828701611c7d565b9250506040611e0d86828701611c1f565b9150509250925092565b600060208284031215611e2d57611e2c611c03565b5b6000611e3b84828501611c1f565b91505092915050565b6000611e4f82611b3c565b9150611e5a83611b3c565b925082821015611e6d57611e6c611b46565b5b828203905092915050565b6000606082019050611e8d6000830186611bcb565b611e9a6020830185611bcb565b611ea76040830184611d5a565b949350505050565b6000606082019050611ec46000830186611d5a565b611ed16020830185611d5a565b611ede6040830184611bcb565b949350505050565b60008115159050919050565b611efb81611ee6565b8114611f0657600080fd5b50565b600081519050611f1881611ef2565b92915050565b600060208284031215611f3457611f33611c03565b5b6000611f4284828501611f09565b91505092915050565b6000606082019050611f606000830186611d5a565b611f6d6020830185611bcb565b611f7a6040830184611bcb565b949350505050565b611f8b81611ee6565b82525050565b6000602082019050611fa66000830184611f82565b92915050565b6000604082019050611fc16000830185611d5a565b611fce6020830184611d5a565b9392505050565b6000604082019050611fea6000830185611d5a565b611ff76020830184611bcb565b9392505050565b60006080820190506120136000830187611d5a565b6120206020830186611bcb565b61202d6040830185611bcb565b61203a6060830184611d5a565b95945050505050565b60006040820190506120586000830185611bcb565b6120656020830184611d5a565b9392505050565b60008151905061207b81611c08565b92915050565b60006020828403121561209757612096611c03565b5b60006120a58482850161206c565b91505092915050565b60006060820190506120c36000830186611bcb565b6120d06020830185611d5a565b6120dd6040830184611d5a565b94935050505056fea26469706673582212207491deee96ce380fc8a2554f718300f3ee37061e9f7fd399e331de0385c6fd6064736f6c634300080a0033",
  "linkReferences": {},
  "deployedLinkReferences": {}
}